{
  "contractName": "StarNotary",
  "abi": [
    {
      "constant": true,
      "inputs": [
        {
          "name": "interfaceId",
          "type": "bytes4"
        }
      ],
      "name": "supportsInterface",
      "outputs": [
        {
          "name": "",
          "type": "bool"
        }
      ],
      "payable": false,
      "stateMutability": "view",
      "type": "function"
    },
    {
      "constant": true,
      "inputs": [
        {
          "name": "",
          "type": "uint256"
        }
      ],
      "name": "starsForSale",
      "outputs": [
        {
          "name": "",
          "type": "uint256"
        }
      ],
      "payable": false,
      "stateMutability": "view",
      "type": "function"
    },
    {
      "constant": false,
      "inputs": [
        {
          "name": "from",
          "type": "address"
        },
        {
          "name": "to",
          "type": "address"
        },
        {
          "name": "tokenId",
          "type": "uint256"
        }
      ],
      "name": "transferFrom",
      "outputs": [],
      "payable": false,
      "stateMutability": "nonpayable",
      "type": "function"
    },
    {
      "constant": true,
      "inputs": [
        {
          "name": "",
          "type": "bytes32"
        }
      ],
      "name": "starHashmap",
      "outputs": [
        {
          "name": "",
          "type": "bool"
        }
      ],
      "payable": false,
      "stateMutability": "view",
      "type": "function"
    },
    {
      "constant": true,
      "inputs": [
        {
          "name": "owner",
          "type": "address"
        }
      ],
      "name": "balanceOf",
      "outputs": [
        {
          "name": "",
          "type": "uint256"
        }
      ],
      "payable": false,
      "stateMutability": "view",
      "type": "function"
    },
    {
      "constant": false,
      "inputs": [
        {
          "name": "to",
          "type": "address"
        },
        {
          "name": "approved",
          "type": "bool"
        }
      ],
      "name": "setApprovalForAll",
      "outputs": [],
      "payable": false,
      "stateMutability": "nonpayable",
      "type": "function"
    },
    {
      "anonymous": false,
      "inputs": [
        {
          "indexed": true,
          "name": "from",
          "type": "address"
        },
        {
          "indexed": true,
          "name": "to",
          "type": "address"
        },
        {
          "indexed": true,
          "name": "tokenId",
          "type": "uint256"
        }
      ],
      "name": "Transfer",
      "type": "event"
    },
    {
      "anonymous": false,
      "inputs": [
        {
          "indexed": true,
          "name": "owner",
          "type": "address"
        },
        {
          "indexed": true,
          "name": "approved",
          "type": "address"
        },
        {
          "indexed": true,
          "name": "tokenId",
          "type": "uint256"
        }
      ],
      "name": "Approval",
      "type": "event"
    },
    {
      "anonymous": false,
      "inputs": [
        {
          "indexed": true,
          "name": "owner",
          "type": "address"
        },
        {
          "indexed": true,
          "name": "operator",
          "type": "address"
        },
        {
          "indexed": false,
          "name": "approved",
          "type": "bool"
        }
      ],
      "name": "ApprovalForAll",
      "type": "event"
    },
    {
      "constant": false,
      "inputs": [
        {
          "name": "name",
          "type": "string"
        },
        {
          "name": "ra",
          "type": "string"
        },
        {
          "name": "dec",
          "type": "string"
        },
        {
          "name": "mag",
          "type": "string"
        },
        {
          "name": "story",
          "type": "string"
        },
        {
          "name": "tokenId",
          "type": "uint256"
        }
      ],
      "name": "createStar",
      "outputs": [],
      "payable": false,
      "stateMutability": "nonpayable",
      "type": "function"
    },
    {
      "constant": false,
      "inputs": [
        {
          "name": "tokenId",
          "type": "uint256"
        },
        {
          "name": "price",
          "type": "uint256"
        }
      ],
      "name": "putStarUpForSale",
      "outputs": [],
      "payable": false,
      "stateMutability": "nonpayable",
      "type": "function"
    },
    {
      "constant": false,
      "inputs": [
        {
          "name": "tokenId",
          "type": "uint256"
        }
      ],
      "name": "buyStar",
      "outputs": [],
      "payable": true,
      "stateMutability": "payable",
      "type": "function"
    },
    {
      "constant": true,
      "inputs": [
        {
          "name": "ra",
          "type": "string"
        },
        {
          "name": "dec",
          "type": "string"
        },
        {
          "name": "mag",
          "type": "string"
        }
      ],
      "name": "checkIfStarExist",
      "outputs": [
        {
          "name": "",
          "type": "bool"
        }
      ],
      "payable": false,
      "stateMutability": "view",
      "type": "function"
    },
    {
      "constant": false,
      "inputs": [
        {
          "name": "tokenId",
          "type": "uint256"
        }
      ],
      "name": "mint",
      "outputs": [],
      "payable": false,
      "stateMutability": "nonpayable",
      "type": "function"
    },
    {
      "constant": true,
      "inputs": [
        {
          "name": "tokenId",
          "type": "uint256"
        }
      ],
      "name": "tokenIdToStarInfo",
      "outputs": [
        {
          "name": "name",
          "type": "string"
        },
        {
          "name": "story",
          "type": "string"
        },
        {
          "name": "ra",
          "type": "string"
        },
        {
          "name": "dec",
          "type": "string"
        },
        {
          "name": "mag",
          "type": "string"
        }
      ],
      "payable": false,
      "stateMutability": "view",
      "type": "function"
    },
    {
      "constant": true,
      "inputs": [],
      "name": "allStarsForSale",
      "outputs": [
        {
          "name": "",
          "type": "uint256[]"
        }
      ],
      "payable": false,
      "stateMutability": "view",
      "type": "function"
    },
    {
      "constant": false,
      "inputs": [
        {
          "name": "to",
          "type": "address"
        },
        {
          "name": "tokenId",
          "type": "uint256"
        }
      ],
      "name": "approve",
      "outputs": [],
      "payable": false,
      "stateMutability": "nonpayable",
      "type": "function"
    },
    {
      "constant": false,
      "inputs": [
        {
          "name": "from",
          "type": "address"
        },
        {
          "name": "to",
          "type": "address"
        },
        {
          "name": "tokenId",
          "type": "uint256"
        }
      ],
      "name": "safeTransferFrom",
      "outputs": [],
      "payable": false,
      "stateMutability": "nonpayable",
      "type": "function"
    },
    {
      "constant": false,
      "inputs": [
        {
          "name": "from",
          "type": "address"
        },
        {
          "name": "to",
          "type": "address"
        },
        {
          "name": "tokenId",
          "type": "uint256"
        },
        {
          "name": "_data",
          "type": "bytes"
        }
      ],
      "name": "safeTransferFrom",
      "outputs": [],
      "payable": false,
      "stateMutability": "nonpayable",
      "type": "function"
    },
    {
      "constant": false,
      "inputs": [
        {
          "name": "to",
          "type": "address"
        },
        {
          "name": "approved",
          "type": "bool"
        }
      ],
      "name": "SetApprovalForAll",
      "outputs": [],
      "payable": false,
      "stateMutability": "nonpayable",
      "type": "function"
    },
    {
      "constant": true,
      "inputs": [
        {
          "name": "tokenId",
          "type": "uint256"
        }
      ],
      "name": "getApproved",
      "outputs": [
        {
          "name": "",
          "type": "address"
        }
      ],
      "payable": false,
      "stateMutability": "view",
      "type": "function"
    },
    {
      "constant": true,
      "inputs": [
        {
          "name": "owner",
          "type": "address"
        },
        {
          "name": "operator",
          "type": "address"
        }
      ],
      "name": "isApprovedForAll",
      "outputs": [
        {
          "name": "",
          "type": "bool"
        }
      ],
      "payable": false,
      "stateMutability": "view",
      "type": "function"
    },
    {
      "constant": true,
      "inputs": [
        {
          "name": "tokenId",
          "type": "uint256"
        }
      ],
      "name": "ownerOf",
      "outputs": [
        {
          "name": "",
          "type": "address"
        }
      ],
      "payable": false,
      "stateMutability": "view",
      "type": "function"
    }
  ],
  "bytecode": "0x6080604052620000416301ffc9a77c01000000000000000000000000000000000000000000000000000000000262000084640100000000026401000000009004565b6200007e6380ac58cd7c01000000000000000000000000000000000000000000000000000000000262000084640100000000026401000000009004565b62000142565b63ffffffff7c010000000000000000000000000000000000000000000000000000000002817bffffffffffffffffffffffffffffffffffffffffffffffffffffffff191614151515620000d657600080fd5b6001600080837bffffffffffffffffffffffffffffffffffffffffffffffffffffffff19167bffffffffffffffffffffffffffffffffffffffffffffffffffffffff1916815260200190815260200160002060006101000a81548160ff02191690831515021790555050565b61295c80620001526000396000f300608060405260043610610112576000357c0100000000000000000000000000000000000000000000000000000000900463ffffffff16806301ffc9a7146101175780630384153d1461017b5780630564b13014610288578063081812fc146102c9578063095ea7b31461033657806311fb3e60146103835780631967fd98146103d257806323b872dd146106285780632f1c34ef14610695578063316a4361146106b557806342134afa146106ec57806342842e0e146107355780635affc43c146107a25780636352211e1461080e57806370a082311461087b578063a0712d68146108d2578063a22cb465146108ff578063b250ced01461094e578063b88d4fde14610ad9578063e985e9c514610b8c575b600080fd5b34801561012357600080fd5b5061016160048036038101908080357bffffffffffffffffffffffffffffffffffffffffffffffffffffffff19169060200190929190505050610c07565b604051808215151515815260200191505060405180910390f35b34801561018757600080fd5b5061026e600480360381019080803590602001908201803590602001908080601f0160208091040260200160405190810160405280939291908181526020018383808284378201915050505050509192919290803590602001908201803590602001908080601f0160208091040260200160405190810160405280939291908181526020018383808284378201915050505050509192919290803590602001908201803590602001908080601f0160208091040260200160405190810160405280939291908181526020018383808284378201915050505050509192919290505050610c6e565b604051808215151515815260200191505060405180910390f35b34801561029457600080fd5b506102b360048036038101908080359060200190929190505050610e1f565b6040518082815260200191505060405180910390f35b3480156102d557600080fd5b506102f460048036038101908080359060200190929190505050610e37565b604051808273ffffffffffffffffffffffffffffffffffffffff1673ffffffffffffffffffffffffffffffffffffffff16815260200191505060405180910390f35b34801561034257600080fd5b50610381600480360381019080803573ffffffffffffffffffffffffffffffffffffffff16906020019092919080359060200190929190505050610e49565b005b34801561038f57600080fd5b506103d0600480360381019080803573ffffffffffffffffffffffffffffffffffffffff169060200190929190803515159060200190929190505050610e57565b005b3480156103de57600080fd5b506103fd60048036038101908080359060200190929190505050610e65565b60405180806020018060200180602001806020018060200186810386528b818151815260200191508051906020019080838360005b8381101561044d578082015181840152602081019050610432565b50505050905090810190601f16801561047a5780820380516001836020036101000a031916815260200191505b5086810385528a818151815260200191508051906020019080838360005b838110156104b3578082015181840152602081019050610498565b50505050905090810190601f1680156104e05780820380516001836020036101000a031916815260200191505b50868103845289818151815260200191508051906020019080838360005b838110156105195780820151818401526020810190506104fe565b50505050905090810190601f1680156105465780820380516001836020036101000a031916815260200191505b50868103835288818151815260200191508051906020019080838360005b8381101561057f578082015181840152602081019050610564565b50505050905090810190601f1680156105ac5780820380516001836020036101000a031916815260200191505b50868103825287818151815260200191508051906020019080838360005b838110156105e55780820151818401526020810190506105ca565b50505050905090810190601f1680156106125780820380516001836020036101000a031916815260200191505b509a505050505050505050505060405180910390f35b34801561063457600080fd5b50610693600480360381019080803573ffffffffffffffffffffffffffffffffffffffff169060200190929190803573ffffffffffffffffffffffffffffffffffffffff169060200190929190803590602001909291905050506111ed565b005b6106b3600480360381019080803590602001909291905050506112bc565b005b3480156106c157600080fd5b506106ea6004803603810190808035906020019092919080359060200190929190505050611499565b005b3480156106f857600080fd5b5061071b60048036038101908080356000191690602001909291905050506115e1565b604051808215151515815260200191505060405180910390f35b34801561074157600080fd5b506107a0600480360381019080803573ffffffffffffffffffffffffffffffffffffffff169060200190929190803573ffffffffffffffffffffffffffffffffffffffff16906020019092919080359060200190929190505050611601565b005b3480156107ae57600080fd5b506107b7611611565b6040518080602001828103825283818151815260200191508051906020019060200280838360005b838110156107fa5780820151818401526020810190506107df565b505050509050019250505060405180910390f35b34801561081a57600080fd5b5061083960048036038101908080359060200190929190505050611669565b604051808273ffffffffffffffffffffffffffffffffffffffff1673ffffffffffffffffffffffffffffffffffffffff16815260200191505060405180910390f35b34801561088757600080fd5b506108bc600480360381019080803573ffffffffffffffffffffffffffffffffffffffff16906020019092919050505061167b565b6040518082815260200191505060405180910390f35b3480156108de57600080fd5b506108fd600480360381019080803590602001909291905050506116ff565b005b34801561090b57600080fd5b5061094c600480360381019080803573ffffffffffffffffffffffffffffffffffffffff16906020019092919080351515906020019092919050505061170c565b005b34801561095a57600080fd5b50610ad7600480360381019080803590602001908201803590602001908080601f0160208091040260200160405190810160405280939291908181526020018383808284378201915050505050509192919290803590602001908201803590602001908080601f0160208091040260200160405190810160405280939291908181526020018383808284378201915050505050509192919290803590602001908201803590602001908080601f0160208091040260200160405190810160405280939291908181526020018383808284378201915050505050509192919290803590602001908201803590602001908080601f0160208091040260200160405190810160405280939291908181526020018383808284378201915050505050509192919290803590602001908201803590602001908080601f016020809104026020016040519081016040528093929190818152602001838380828437820191505050505050919291929080359060200190929190505050611848565b005b348015610ae557600080fd5b50610b8a600480360381019080803573ffffffffffffffffffffffffffffffffffffffff169060200190929190803573ffffffffffffffffffffffffffffffffffffffff16906020019092919080359060200190929190803590602001908201803590602001908080601f0160208091040260200160405190810160405280939291908181526020018383808284378201915050505050509192919290505050611cce565b005b348015610b9857600080fd5b50610bed600480360381019080803573ffffffffffffffffffffffffffffffffffffffff169060200190929190803573ffffffffffffffffffffffffffffffffffffffff169060200190929190505050611cf6565b604051808215151515815260200191505060405180910390f35b6000806000837bffffffffffffffffffffffffffffffffffffffffffffffffffffffff19167bffffffffffffffffffffffffffffffffffffffffffffffffffffffff1916815260200190815260200160002060009054906101000a900460ff169050919050565b6000808484846040516020018084805190602001908083835b602083101515610cac5780518252602082019150602081019050602083039250610c87565b6001836020036101000a03801982511681845116808217855250505050505090500183805190602001908083835b602083101515610cff5780518252602082019150602081019050602083039250610cda565b6001836020036101000a03801982511681845116808217855250505050505090500182805190602001908083835b602083101515610d525780518252602082019150602081019050602083039250610d2d565b6001836020036101000a03801982511681845116808217855250505050505090500193505050506040516020818303038152906040526040518082805190602001908083835b602083101515610dbd5780518252602082019150602081019050602083039250610d98565b6001836020036101000a0380198251168184511680821785525050505050509050019150506040518091039020905060076000826000191660001916815260200190815260200160002060009054906101000a900460ff169150509392505050565b60066020528060005260406000206000915090505481565b6000610e4282611d0a565b9050919050565b610e538282611d5b565b5050565b610e61828261170c565b5050565b6060806060806060610e7561285b565b6005600088815260200190815260200160002060a06040519081016040529081600082018054600181600116156101000203166002900480601f016020809104026020016040519081016040528092919081815260200182805460018160011615610100020316600290048015610f2d5780601f10610f0257610100808354040283529160200191610f2d565b820191906000526020600020905b815481529060010190602001808311610f1057829003601f168201915b50505050508152602001600182018054600181600116156101000203166002900480601f016020809104026020016040519081016040528092919081815260200182805460018160011615610100020316600290048015610fcf5780601f10610fa457610100808354040283529160200191610fcf565b820191906000526020600020905b815481529060010190602001808311610fb257829003601f168201915b50505050508152602001600282018054600181600116156101000203166002900480601f0160208091040260200160405190810160405280929190818152602001828054600181600116156101000203166002900480156110715780601f1061104657610100808354040283529160200191611071565b820191906000526020600020905b81548152906001019060200180831161105457829003601f168201915b50505050508152602001600382018054600181600116156101000203166002900480601f0160208091040260200160405190810160405280929190818152602001828054600181600116156101000203166002900480156111135780601f106110e857610100808354040283529160200191611113565b820191906000526020600020905b8154815290600101906020018083116110f657829003601f168201915b50505050508152602001600482018054600181600116156101000203166002900480601f0160208091040260200160405190810160405280929190818152602001828054600181600116156101000203166002900480156111b55780601f1061118a576101008083540402835291602001916111b5565b820191906000526020600020905b81548152906001019060200180831161119857829003601f168201915b505050505081525050905080600001519550806080015194508060200151935080604001519250806060015191505091939590929450565b6111f73382611ea0565b151561120257600080fd5b600073ffffffffffffffffffffffffffffffffffffffff168273ffffffffffffffffffffffffffffffffffffffff161415151561123e57600080fd5b6112488382611f35565b6112528382612038565b61125c8282612167565b808273ffffffffffffffffffffffffffffffffffffffff168473ffffffffffffffffffffffffffffffffffffffff167fddf252ad1be2c89b69c2b068fc378daa952ba7f163c4a11628f55a4df523b3ef60405160405180910390a4505050565b60008060008060066000868152602001908152602001600020541115156112e257600080fd5b600660008581526020019081526020016000205492503073ffffffffffffffffffffffffffffffffffffffff16636352211e856040518263ffffffff167c010000000000000000000000000000000000000000000000000000000002815260040180828152602001915050602060405180830381600087803b15801561136757600080fd5b505af115801561137b573d6000803e3d6000fd5b505050506040513d602081101561139157600080fd5b810190808051906020019092919050505091508234101515156113b357600080fd5b6113bd8285612038565b6113c73385612167565b600860008581526020019081526020016000205490506009818154811015156113ec57fe5b90600052602060002001600090558173ffffffffffffffffffffffffffffffffffffffff166108fc849081150290604051600060405180830381858888f19350505050158015611440573d6000803e3d6000fd5b5082341115611493573373ffffffffffffffffffffffffffffffffffffffff166108fc8434039081150290604051600060405180830381858888f19350505050158015611491573d6000803e3d6000fd5b505b50505050565b3373ffffffffffffffffffffffffffffffffffffffff163073ffffffffffffffffffffffffffffffffffffffff16636352211e846040518263ffffffff167c010000000000000000000000000000000000000000000000000000000002815260040180828152602001915050602060405180830381600087803b15801561151f57600080fd5b505af1158015611533573d6000803e3d6000fd5b505050506040513d602081101561154957600080fd5b810190808051906020019092919050505073ffffffffffffffffffffffffffffffffffffffff1614151561157c57600080fd5b806006600084815260200190815260200160002081905550600980549050600860008481526020019081526020016000208190555060098290806001815401808255809150509060018203906000526020600020016000909192909190915055505050565b60076020528060005260406000206000915054906101000a900460ff1681565b61160c8383836122c1565b505050565b6060600980548060200260200160405190810160405280929190818152602001828054801561165f57602002820191906000526020600020905b81548152602001906001019080831161164b575b5050505050905090565b6000611674826122e2565b9050919050565b60008073ffffffffffffffffffffffffffffffffffffffff168273ffffffffffffffffffffffffffffffffffffffff16141515156116b857600080fd5b600360008373ffffffffffffffffffffffffffffffffffffffff1673ffffffffffffffffffffffffffffffffffffffff168152602001908152602001600020549050919050565b6117093382612360565b50565b3373ffffffffffffffffffffffffffffffffffffffff168273ffffffffffffffffffffffffffffffffffffffff161415151561174757600080fd5b80600460003373ffffffffffffffffffffffffffffffffffffffff1673ffffffffffffffffffffffffffffffffffffffff16815260200190815260200160002060008473ffffffffffffffffffffffffffffffffffffffff1673ffffffffffffffffffffffffffffffffffffffff16815260200190815260200160002060006101000a81548160ff0219169083151502179055508173ffffffffffffffffffffffffffffffffffffffff163373ffffffffffffffffffffffffffffffffffffffff167f17307eab39ab6107e8899845ad3d59bd9653f200f220920489ca2b5937696c3183604051808215151515815260200191505060405180910390a35050565b61185061285b565b600060a0604051908101604052808981526020018881526020018781526020018681526020018581525091506118956020604051908101604052806000815250612406565b60001916611950600560008681526020019081526020016000206001018054600181600116156101000203166002900480601f0160208091040260200160405190810160405280929190818152602001828054600181600116156101000203166002900480156119465780601f1061191b57610100808354040283529160200191611946565b820191906000526020600020905b81548152906001019060200180831161192957829003601f168201915b5050505050612406565b6000191614151561196057600080fd5b6119796020604051908101604052806000815250612406565b6000191661198689612406565b600019161415151561199757600080fd5b6119b06020604051908101604052806000815250612406565b600019166119bd88612406565b60001916141515156119ce57600080fd5b6119e76020604051908101604052806000815250612406565b600019166119f487612406565b6000191614151515611a0557600080fd5b611a1e6020604051908101604052806000815250612406565b60001916611a2b86612406565b6000191614151515611a3c57600080fd5b60008314151515611a4c57600080fd5b611a57878787610c6e565b151515611a6357600080fd5b81600560008581526020019081526020016000206000820151816000019080519060200190611a9392919061288b565b506020820151816001019080519060200190611ab092919061288b565b506040820151816002019080519060200190611acd92919061288b565b506060820151816003019080519060200190611aea92919061288b565b506080820151816004019080519060200190611b0792919061288b565b509050508686866040516020018084805190602001908083835b602083101515611b465780518252602082019150602081019050602083039250611b21565b6001836020036101000a03801982511681845116808217855250505050505090500183805190602001908083835b602083101515611b995780518252602082019150602081019050602083039250611b74565b6001836020036101000a03801982511681845116808217855250505050505090500182805190602001908083835b602083101515611bec5780518252602082019150602081019050602083039250611bc7565b6001836020036101000a03801982511681845116808217855250505050505090500193505050506040516020818303038152906040526040518082805190602001908083835b602083101515611c575780518252602082019150602081019050602083039250611c32565b6001836020036101000a03801982511681845116808217855250505050505090500191505060405180910390209050600160076000836000191660001916815260200190815260200160002060006101000a81548160ff021916908315150217905550611cc43384612360565b5050505050505050565b611cd98484846111ed565b611ce5848484846124de565b1515611cf057600080fd5b50505050565b6000611d028383612700565b905092915050565b6000611d1582612794565b1515611d2057600080fd5b6002600083815260200190815260200160002060009054906101000a900473ffffffffffffffffffffffffffffffffffffffff169050919050565b6000611d6682611669565b90508073ffffffffffffffffffffffffffffffffffffffff168373ffffffffffffffffffffffffffffffffffffffff1614151515611da357600080fd5b8073ffffffffffffffffffffffffffffffffffffffff163373ffffffffffffffffffffffffffffffffffffffff161480611de35750611de28133611cf6565b5b1515611dee57600080fd5b826002600084815260200190815260200160002060006101000a81548173ffffffffffffffffffffffffffffffffffffffff021916908373ffffffffffffffffffffffffffffffffffffffff160217905550818373ffffffffffffffffffffffffffffffffffffffff168273ffffffffffffffffffffffffffffffffffffffff167f8c5be1e5ebec7d5bd14f71427d1e84f3dd0314c0f7b2291e5b200ac8c7c3b92560405160405180910390a4505050565b600080611eac83611669565b90508073ffffffffffffffffffffffffffffffffffffffff168473ffffffffffffffffffffffffffffffffffffffff161480611f1b57508373ffffffffffffffffffffffffffffffffffffffff16611f0384610e37565b73ffffffffffffffffffffffffffffffffffffffff16145b80611f2c5750611f2b8185611cf6565b5b91505092915050565b8173ffffffffffffffffffffffffffffffffffffffff16611f5582611669565b73ffffffffffffffffffffffffffffffffffffffff16141515611f7757600080fd5b600073ffffffffffffffffffffffffffffffffffffffff166002600083815260200190815260200160002060009054906101000a900473ffffffffffffffffffffffffffffffffffffffff1673ffffffffffffffffffffffffffffffffffffffff161415156120345760006002600083815260200190815260200160002060006101000a81548173ffffffffffffffffffffffffffffffffffffffff021916908373ffffffffffffffffffffffffffffffffffffffff1602179055505b5050565b8173ffffffffffffffffffffffffffffffffffffffff1661205882611669565b73ffffffffffffffffffffffffffffffffffffffff1614151561207a57600080fd5b6120cd6001600360008573ffffffffffffffffffffffffffffffffffffffff1673ffffffffffffffffffffffffffffffffffffffff1681526020019081526020016000205461280690919063ffffffff16565b600360008473ffffffffffffffffffffffffffffffffffffffff1673ffffffffffffffffffffffffffffffffffffffff1681526020019081526020016000208190555060006001600083815260200190815260200160002060006101000a81548173ffffffffffffffffffffffffffffffffffffffff021916908373ffffffffffffffffffffffffffffffffffffffff1602179055505050565b600073ffffffffffffffffffffffffffffffffffffffff166001600083815260200190815260200160002060009054906101000a900473ffffffffffffffffffffffffffffffffffffffff1673ffffffffffffffffffffffffffffffffffffffff161415156121d557600080fd5b816001600083815260200190815260200160002060006101000a81548173ffffffffffffffffffffffffffffffffffffffff021916908373ffffffffffffffffffffffffffffffffffffffff16021790555061227a6001600360008573ffffffffffffffffffffffffffffffffffffffff1673ffffffffffffffffffffffffffffffffffffffff1681526020019081526020016000205461282790919063ffffffff16565b600360008473ffffffffffffffffffffffffffffffffffffffff1673ffffffffffffffffffffffffffffffffffffffff168152602001908152602001600020819055505050565b6122dd8383836020604051908101604052806000815250611cce565b505050565b6000806001600084815260200190815260200160002060009054906101000a900473ffffffffffffffffffffffffffffffffffffffff169050600073ffffffffffffffffffffffffffffffffffffffff168173ffffffffffffffffffffffffffffffffffffffff161415151561235757600080fd5b80915050919050565b600073ffffffffffffffffffffffffffffffffffffffff168273ffffffffffffffffffffffffffffffffffffffff161415151561239c57600080fd5b6123a68282612167565b808273ffffffffffffffffffffffffffffffffffffffff16600073ffffffffffffffffffffffffffffffffffffffff167fddf252ad1be2c89b69c2b068fc378daa952ba7f163c4a11628f55a4df523b3ef60405160405180910390a45050565b6000816040516020018082805190602001908083835b602083101515612441578051825260208201915060208101905060208303925061241c565b6001836020036101000a0380198251168184511680821785525050505050509050019150506040516020818303038152906040526040518082805190602001908083835b6020831015156124aa5780518252602082019150602081019050602083039250612485565b6001836020036101000a03801982511681845116808217855250505050505090500191505060405180910390209050919050565b6000806125008573ffffffffffffffffffffffffffffffffffffffff16612848565b151561250f57600191506126f7565b8473ffffffffffffffffffffffffffffffffffffffff1663150b7a02338887876040518563ffffffff167c0100000000000000000000000000000000000000000000000000000000028152600401808573ffffffffffffffffffffffffffffffffffffffff1673ffffffffffffffffffffffffffffffffffffffff1681526020018473ffffffffffffffffffffffffffffffffffffffff1673ffffffffffffffffffffffffffffffffffffffff16815260200183815260200180602001828103825283818151815260200191508051906020019080838360005b838110156126045780820151818401526020810190506125e9565b50505050905090810190601f1680156126315780820380516001836020036101000a031916815260200191505b5095505050505050602060405180830381600087803b15801561265357600080fd5b505af1158015612667573d6000803e3d6000fd5b505050506040513d602081101561267d57600080fd5b8101908080519060200190929190505050905063150b7a027c0100000000000000000000000000000000000000000000000000000000027bffffffffffffffffffffffffffffffffffffffffffffffffffffffff1916817bffffffffffffffffffffffffffffffffffffffffffffffffffffffff19161491505b50949350505050565b6000600460008473ffffffffffffffffffffffffffffffffffffffff1673ffffffffffffffffffffffffffffffffffffffff16815260200190815260200160002060008373ffffffffffffffffffffffffffffffffffffffff1673ffffffffffffffffffffffffffffffffffffffff16815260200190815260200160002060009054906101000a900460ff16905092915050565b6000806001600084815260200190815260200160002060009054906101000a900473ffffffffffffffffffffffffffffffffffffffff169050600073ffffffffffffffffffffffffffffffffffffffff168173ffffffffffffffffffffffffffffffffffffffff161415915050919050565b60008083831115151561281857600080fd5b82840390508091505092915050565b600080828401905083811015151561283e57600080fd5b8091505092915050565b600080823b905060008111915050919050565b60a06040519081016040528060608152602001606081526020016060815260200160608152602001606081525090565b828054600181600116156101000203166002900490600052602060002090601f016020900481019282601f106128cc57805160ff19168380011785556128fa565b828001600101855582156128fa579182015b828111156128f95782518255916020019190600101906128de565b5b509050612907919061290b565b5090565b61292d91905b80821115612929576000816000905550600101612911565b5090565b905600a165627a7a723058202ed51883edd7c9912f756a71e386c4dc5c50a4135f71391a6d57d3ffb15edfe20029",
  "source": "pragma solidity ^0.4.23;\n\nimport \"openzeppelin-solidity/contracts/token/ERC721/ERC721.sol\";\n\n// Related Udacity Lesson\n// https://classroom.udacity.com/nanodegrees/nd1309/parts/2e478a90-310b-4703-aa20-efec12eb258c/modules/f1d81730-f430-46fb-a490-0f260a65f997/lessons/6cd7e4ac-79b4-43bd-9db9-2459a99164a1/concepts/46374703-d28d-421d-a4d3-f6968ee31444\n\ncontract StarNotary is ERC721 {\n    struct Star {\n        string name;\n        string ra;\n        string dec;\n        string mag;\n        string story;\n    }\n\n    mapping(uint256 => Star) public tokenIdToStarInfo;\n    mapping(uint256 => uint256) public starsForSale;\n    mapping(bytes32 => bool) public starHashmap;\n    mapping(uint256 => uint256) internal tokenIdForSale2Index;\n\n    uint256[] allStarIdsForSale;\n\n    function createStar(string name, string ra, string dec, string mag, string story, uint256 tokenId) public {\n        Star memory newStar = Star(name, ra, dec, mag, story);\n\n        // check if tokenId already exists\n        require(getHash(tokenIdToStarInfo[tokenId].ra) == getHash(\"\"));\n\n        // check if inputs are valid\n        require(getHash(name) != getHash(\"\"));\n        require(getHash(ra) != getHash(\"\"));\n        require(getHash(dec) != getHash(\"\"));\n        require(getHash(mag) != getHash(\"\"));\n        require(tokenId != 0);\n\n        // check if star already exists\n        require(!checkIfStarExist(ra, dec, mag));\n\n        tokenIdToStarInfo[tokenId] = newStar;\n\n        bytes32 starHash = keccak256(abi.encodePacked(ra, dec, mag));\n        starHashmap[starHash] = true;\n\n        _mint(msg.sender, tokenId);\n    }\n\n    function putStarUpForSale(uint256 tokenId, uint256 price) public {\n        require(this.ownerOf(tokenId) == msg.sender);\n\n        starsForSale[tokenId] = price;\n        tokenIdForSale2Index[tokenId] = allStarIdsForSale.length;\n        allStarIdsForSale.push(tokenId);\n    }\n\n    function buyStar(uint256 tokenId) public payable {\n        require(starsForSale[tokenId] > 0);\n\n        uint256 starCost = starsForSale[tokenId];\n        address starOwner = this.ownerOf(tokenId);\n        require(msg.value >= starCost);\n\n        _removeTokenFrom(starOwner, tokenId);\n        _addTokenTo(msg.sender, tokenId);\n\n        uint256 index = tokenIdForSale2Index[tokenId];\n        delete allStarIdsForSale[index];\n\n        starOwner.transfer(starCost);\n\n        if(msg.value > starCost) {\n            msg.sender.transfer(msg.value - starCost);\n        }\n    }\n\n    function checkIfStarExist(string ra, string dec, string mag) public view returns(bool) {\n        bytes32 starHash = keccak256(abi.encodePacked(ra, dec, mag));\n        return starHashmap[starHash];\n    }\n\n    function mint(uint256 tokenId) public {\n        super._mint(msg.sender, tokenId);\n    }\n\n    function tokenIdToStarInfo(uint256 tokenId) public view \n        returns(string name, string story, string ra, string dec, string mag) \n    {\n        Star memory star = tokenIdToStarInfo[tokenId];\n        name = star.name;\n        story = star.story;\n        ra = star.ra;\n        dec = star.dec;\n        mag = star.mag;\n    }\n\n    function allStarsForSale() public view returns(uint256[]) {\n        return allStarIdsForSale;\n    } \n\n    function approve(address to, uint256 tokenId) public {\n        super.approve(to, tokenId);\n    }\n\n    function safeTransferFrom(address from, address to, uint256 tokenId) public {\n        super.safeTransferFrom(from, to, tokenId);\n    }\n\n    function SetApprovalForAll(address to, bool approved) public {\n        super.setApprovalForAll(to, approved);\n    }\n\n    function getApproved(uint256 tokenId) public view returns (address) {\n        return super.getApproved(tokenId);\n    }\n\n    function isApprovedForAll(address owner, address operator) public view returns (bool) {\n        return super.isApprovedForAll(owner, operator);\n    }\n\n    function ownerOf(uint256 tokenId) public view returns (address) {\n        return super.ownerOf(tokenId);\n    }\n\n    function stringEquals(string a, string b) internal pure returns (bool) {\n        return getHash(a) == getHash(b);\n    }\n\n    function getHash(string str) internal pure returns(bytes32) {\n        return keccak256(abi.encodePacked(str));\n    }\n}",
  "sourcePath": "/Users/hyunjaelee/pooh/blockchain/myblockchain/ud-blockchain-proj5/smart_contracts/contracts/StarNotary.sol",
  "compiler": {
    "name": "solc",
    "version": "0.4.24+commit.e67f0147.Emscripten.clang"
  },
  "schemaVersion": "2.0.1",
  "updatedAt": "2018-12-02T16:44:46.385Z"
}